:100000000C942E000C94BE000C94BE000C94BE0008
:100010000C94BE000C94BE000C94BE000C94BE0068
:100020000C94BE000C94BE000C94BE000C94BE0058
:100030000C94BE000C94BE000C94BE000C94BE0048
:100040000C94BE000C94BE000C94BE000C94BE0038
:100050000C94BE00006001F800018A0011241FBE4C
:10006000CFE5D8E0DEBFCDBFE4E5F0E040E017C06B
:10007000B591A59135912591059107FD0CC09591FC
:100080008591EF01F92FE82F05900D92A217B30784
:10009000D9F7FE0104C01D92A217B307E1F7EB35B3
:1000A000F40731F70E9458000C94B300F894FFCF86
:1000B000CF93DF93CDB7DEB7C859D1400FB6F894D0
:1000C000DEBF0FBECDBF8FEF87BB81BB88E891E05D
:1000D000E0E6F0E0DE01119601900D920197E1F764
:1000E00080E1E8EEF1E0DE01A757BE4F01900D92EE
:1000F0008A95E1F740E050E032C0FC01EE0FFF1FAF
:1001000029E831E02C0F3D1FE20FF31F208122BBB5
:10011000FA01EE0FFF1FEE0FFF1FEE0FFF1F21E092
:1001200030E02C0F3D1FE20FF31FE80FF91F208175
:10013000209528BBEBE2F1E03197F1F700C0000019
:10014000019602C080E090E088309105B4F28FEF14
:100150009CE70197F1F700C000004F5F5F4F42330B
:06016000510584F3C7CF36
:10016600EC010E94C3000E94C200CE010E94C4009E
:06017600CE010E94C00052
:04017C000C940000DF
:040180000E94560083
:020184000895DC
:020186000895DA
:020188000895D8
:10018A0081C3A599818181814061524C40404040A0
:10019A0020302926202020201018141310101010A7
:1001AA00080C0A09080808080406050404040404DB
:1001BA00020302020202020201010101010101011C
:1001CA00FF818181FF8181817F4040407F404040A3
:1001DA003F2020203F2020201F1010101F10101039
:1001EA000F0808080F080808070404040704040491
:1001FA0003020202030202020101010101010101DB
:10020A0081C1A1918985838140605048444241401F
:10021A002030282422212020101814121110101026
:10022A00080C0A090808080804060504040404045A
:10023A00020302020202020201010101010101019B
:10024A00FF181818181818FF7F0C0C0C0C0C0C7FD0
:10025A003F0606060606063F1F0303030303031FA2
:10026A000F0101010101010F070000000000000752
:10027A00030000000000000301000000000000016C
:10028A00FF8080FFFF0101FF7F40407F7F00007FEA
:10029A003F20203F3F00003F1F10101F1F00001F7C
:1002AA000F08080F0F00000F0704040707000007D4
:1002BA00030202030300000301010101010000011E
:1002CA00C3C3C3FFFFC3C3C36161617F7F61616150
:1002DA003030303F3F3030301818181F1F181818A8
:1002EA000C0C0C0F0F0C0C0C06060607070606066C
:1002FA0003030303030303030101010101010101D4
:10030A0000000000000000000100020004000800D4
:08031A001000200040008000EB
:00000001FF
