:100000000C942E000C9454010C9454010C94540143
:100010000C9454010C9454010C9454010C9454010C
:100020000C9454010C9454010C9454010C945401FC
:100030000C9454010C9454010C9454010C945401EC
:100040000C9454010C9454010C9454010C945401DC
:100050000C945401006002600002B60011241FBE1F
:10006000CFE5D8E0DEBFCDBFE4E5F0E040E017C06B
:10007000B591A59135912591059107FD0CC09591FC
:100080008591EF01F92FE82F05900D92A217B30784
:10009000D9F7FE0104C01D92A217B307E1F7EB35B3
:1000A000F40731F70E9458000C944901F894FFCFEF
:1000B0008FEF84BB81BB87BB8ABB18BA1BBA12BA4D
:1000C00015BAC12CD12C54C0FE01E85AFD4F8081D5
:1000D00080950E94E000F601EE0FFF1FEE0FFF1F5C
:1000E000EE0FFF1FE05AFF4FEC0FFD1F80810E94B3
:1000F000BD00219687EC90E00197F1F700C0000069
:10010000C830D10514F0C0E0D0E098E0C916D104A1
:10011000ECF0F801E85AFD4F808180950E9426019D
:10012000F6013897EE0FFF1FEE0FFF1FEE0FFF1FB8
:10013000E05AFF4FE00FF11F80810E9403010F5F23
:100140001F4F0830110514F000E010E08FEFE81A9F
:10015000F80A06C0E12CF12C00E010E0C0E0D0E08D
:10016000E11492E0F9060CF4AFCF8FEFC81AD80A69
:0A0170009EE3C916D10474F3A4CF76
:10017A0095B3977F95BB20E030E016C095B39E7F7C
:10018A0095BB882324F495B3926095BB03C095B3BD
:10019A009D7F95BB95B3916095BB880F92E09A9528
:1001AA00F1F700C02F5F3F4F283031053CF385B38C
:0601BA00886085BB08957A
:1001C00092B3977F92BB20E030E016C092B39E7F3F
:1001D00092BB882324F492B3926092BB03C092B383
:1001E0009D7F92BB92B3916092BB880F92E09A95EB
:1001F000F1F700C02F5F3F4F283031053CF382B349
:06020000886082BB089536
:100206009BB3977F9BBB20E030E016C09BB39E7FDD
:100216009BBB882324F49BB392609BBB03C09BB318
:100226009D7F9BBB9BB391609BBB880F92E09A9589
:10023600F1F700C02F5F3F4F283031053CF38BB3F9
:0602460088608BBB0895E7
:10024C0098B3977F98BB20E030E016C098B39E7FA0
:10025C0098BB882324F498B3926098BB03C098B3DE
:10026C009D7F98BB98B3916098BB880F92E09A954C
:10027C00F1F700C02F5F3F4F283031053CF388B3B6
:06028C00886088BB0895A4
:10029200EC010E9459010E945801CE010E945A01AC
:0602A200CE010E9456018E
:0402A8000C940000B2
:0402AC000E94560056
:0202B0000895AF
:0202B2000895AD
:0202B4000895AB
:1002B60000000000000000008000000000000000B8
:1002C600C000000000000000E00000000000000088
:1002D600F080808080808080F8C0C0C0C0C0C0C070
:1002E600FC60606060606060FE303030303030301E
:1002F600FF181818181818187F0C0C0C0C0C0C0C7E
:100306003F060606060606069F030303030303834A
:10031600CF010101010101C1E7000000000000E07A
:10032600F3808080808080F0F9C0C0C0C0C0C0F873
:10033600FC606060606060FCFE303030303030FE63
:10034600FF181818181818FF7F0C0C0C0C0C0C7FD3
:100356003F0606060606063F1F0383830303039F25
:100366000F8141418101814F8740202040804027F5
:10037600C3A09090A0C0A093E1D0C8C8D0E0D0C9D7
:100386007068646468706864383432323438343281
:100396009C1A19191A1C1A19CE0D0C0C0D0E0D0CDF
:1003A600E706060606070606F383838383838383AD
:1003B600F9C1C1C1C1C1C1C1FC606060606060605B
:1003C600FE30303030303030FF1818181818181832
:1003D6007F0C0C0C0C0C0C0C3F06060606060606DB
:1003E6009F83838383838383CFC1C1C1C1C1C1C1BD
:1003F600676060E0E0606060333030F0F0303030ED
:10040600191818F8F81818180C0C0CFCFC0C0C0C25
:10041600868686FEFE868686C3C3C3FFFFC3C3C326
:100426006161617F7F6161613030303F3F303030E4
:100436001818189F9F1818180C0C8C4F4F8C0C0C02
:1004460006864627274686068343231313234383BC
:1004560041A191090991A141205048040448502026
:100466001028A48282A4281008145241415214086C
:10047600040A292020290A04020514101014050272
:1004860001020A08080A0201000105040405010028
:10049600000002020202000000000101010100004A
:0804A60000000000000000004E
:0804AE00010204081020408047
:00000001FF
