:100000000C942E000C9423010C9423010C942301D6
:100010000C9423010C9423010C9423010C942301D0
:100020000C9423010C9423010C9423010C942301C0
:100030000C9423010C9423010C9423010C942301B0
:100040000C9423010C9423010C9423010C942301A0
:100050000C942301006001500002540011241FBEC3
:10006000CFE5D8E0DEBFCDBFE4E5F0E040E017C06B
:10007000B591A59135912591059107FD0CC09591FC
:100080008591EF01F92FE82F05900D92A217B30784
:10009000D9F7FE0104C01D92A217B307E1F7EB35B3
:1000A000F40731F70E9458000C940601F894FFCF32
:1000B000CF93DF93CDB7DEB7C05FD1090FB6F89409
:1000C000DEBF0FBECDBF88EEE0E6F0E0DE011196A8
:1000D00001900D928A95E1F788E0E8E4F1E0DE0115
:1000E000A751BF4F01900D928A95E1F70E941F0121
:1000F00000E010E0E12CF12C38C0E9EEF0E0EC0F6C
:10010000FD1FE00FF11F80810E94BA00F701EE0F82
:10011000FF1FEE0FFF1FEE0FFF1F81E090E08C0F1F
:100120009D1FE80FF91FE00FF11F808180950E944D
:10013000D3000F5F1F4F0830110514F000E010E0EE
:100140008FE697E10197F1F700C00000D39401C05A
:10015000D12C98E69D1588F68FE697E10197F1F787
:1001600000C000009FEFE91AF90A8DE1E816F104DA
:040170007CF3C0CF8D
:10017400CF93DF93D82FC0E00DC0DD2324F485B3E3
:10018400816085BB03C085B38E7F85BB0E9411014E
:10019400DD0FCF5FC83088F30E94EC00DF91CF9170
:0201A4000895BC
:1001A600CF93DF93D82FC0E00DC0DD2324F485B3B1
:1001B600886085BB03C085B3877F85BB0E94180115
:1001C600DD0FCF5FC83088F30E94F900DF91CF9131
:0201D60008958A
:1001D80085B3846085BB81E0982F9A95F1F795B334
:0A01E8009B7F95BB8A95F1F70895FF
:1001F20085B3806285BB81E0982F9A95F1F795B31C
:0A0202009F7D95BB8A95F1F70895E2
:10020C00EC010E9428010E942701CE010E942901C5
:06021C00CE010E94250145
:0E02220085B3826085BB85B38D7F85BB089553
:0E02300085B3806185BB85B38F7E85BB089545
:08023E0084B38F6384BB0895B3
:040246000C94000014
:04024A000E945600B8
:02024E00089511
:0202500008950F
:0202520008950D
:100254000000000000000000010101010101010192
:100264000303020303020303070704070704070742
:100274000F0F080E0E080F0F3E3E203C3C203E3E62
:100284007C7C407878407C7CF9F980F0F080F8F848
:10029400F2F301E0E000F0F0E4E603C1C000E0E0C6
:1002A400C8CC06838101C1C190980C0703038383E2
:1002B4002030190F060606064061331E0C0C0C0C88
:1002C40081C3663C181818180286CC783030303058
:1002D400040C98F060606060091931E1C1C1C1C1CA
:1002E400133362C3838283832767C48707040707A2
:1002F4004FCF880E0E080F0F9F9F101C1C101F1F3E
:100304003E3E203838203E3E7C7C407070407C7CF1
:10031400F8F880E0E080F8F8F0F000C0C000F0F0F9
:10032400E0E000808000E0E0C0C000000000C0C049
:1003340080800000000080800102040810204080BA
:00000001FF
