:100000000C942A000C946F000C946F000C946F00F9
:100010000C946F000C946F000C946F000C946F00A4
:100020000C946F000C946F000C946F000C946F0094
:100030000C946F000C946F000C946F000C946F0084
:100040000C946F000C946F000C946F000C946F0074
:100050000C946F0011241FBECFE5D8E0DEBFCDBFEA
:0C0060000E9436000C946400F894FFCF5E
:10006C008FEF81BB87BB71E060E840E050E022C0BD
:10007C0082E0842782BB4F5F5F4F40FD04C078BB9A
:10008C0020E030E014C068BBFBCF88B390E0022EB8
:10009C0002C0880F991F0A94E2F7809588BB83ED04
:1000AC0090E30197F1F700C000002F5F3F4F28301D
:0C00BC0031055CF348305105DCF2D7CF71
:1000C800EC010E9474000E947300CE010E9475002A
:0600D800CE010E94710040
:0400DE000C9400007E
:0400E2000E94340044
:0200E60008957B
:0200E800089579
:0200EA00089577
:00000001FF
