:100000000C942E000C947A000C947A000C947A00D4
:100010000C947A000C947A000C947A000C947A0078
:100020000C947A000C947A000C947A000C947A0068
:100030000C947A000C947A000C947A000C947A0058
:100040000C947A000C947A000C947A000C947A0048
:100050000C947A00006000700001020011241FBEA1
:10006000CFE5D8E0DEBFCDBFE4E5F0E040E017C06B
:10007000B591A59135912591059107FD0CC09591FC
:100080008591EF01F92FE82F05900D92A217B30784
:10009000D9F7FE0104C01D92A217B307E1F7EB35B3
:1000A000F40731F70E9458000C946F00F894FFCFCA
:1000B0008FEF81BB87BB80E090E00DC012BAFC01DE
:1000C000E859FF4F2081209528BBFC01E05AFF4FE3
:0E00D000208122BB01968830910584F3ECCF8D
:1000DE00EC010E947F000E947E00CE010E948000F3
:0600EE00CE010E947C001F
:0400F4000C94000068
:0400F8000E9456000C
:0200FC00089565
:0200FE00089563
:02010000089560
:080102000102040810204080F6
:08010A0081C3663C18181818A7
:00000001FF
