:100000000C942E000C94F8000C94F8000C94F8005A
:100010000C94F8000C94F8000C94F8000C94F80080
:100020000C94F8000C94F8000C94F8000C94F80070
:100030000C94F8000C94F8000C94F8000C94F80060
:100040000C94F8000C94F8000C94F8000C94F80050
:100050000C94F800006000E80001FE0011241FBEAF
:10006000CFE5D8E0DEBFCDBFE4E5F0E040E017C06B
:10007000B591A59135912591059107FD0CC09591FC
:100080008591EF01F92FE82F05900D92A217B30784
:10009000D9F7FE0104C01D92A217B307E1F7EB35B3
:1000A000F40731F70E94A3000C94ED00F894FFCF01
:1000B000FC016130710521F460E051E072E003C0A1
:1000C00063E054E075E040E02CC0E7FF0CC025B3CE
:1000D00081E090E0062E02C0880F991F0A94E2F793
:1000E000822B85BB0CC025B381E090E0062E02C0B8
:1000F000880F991F0A94E2F78095822385BB95B3F8
:1001000021E030E0052E02C0220F331F0A94E2F7EF
:10011000922B95BB95B32095292325BBEE0FFF1F8E
:100120004F5F483090F225B381E090E002C0880F25
:10013000991F7A95E2F7922F982B95BB95B38095EE
:06014000892385BB089530
:10014600CF93DF93CDB7DEB7C858D1090FB6F89471
:10015600DEBF0FBECDBF80E8E0E6F0E0DE0111961F
:1001660001900D928A95E1F788E0E0EEF0E0DE017D
:10017600AF57BF4F01900D928A95E1F78FE384BB8D
:1001860000E010E0E1E8F0E0EC0FFD1FE00FF11FEA
:10019600808161E070E090E00E945800E1E0F0E0CC
:1001A600EC0FFD1FE00FF11F808190E062E070E030
:1001B600809590950E9458000F5F1F4F8FEC97E037
:1001C6000197F1F700C0000007301105DCF200E0EE
:0401D60010E0D8CF8E
:1001DA00EC010E94FD000E94FC00CE010E94FE007C
:0601EA00CE010E94FA00A4
:0401F0000C9400006B
:0401F4000E9456000F
:0201F800089568
:0201FA00089566
:0201FC00089564
:1001FE00FF8080FFFF8080FF7F40407F7F40407FF9
:10020E003F20203F3F20203F1F10101F1F10101FA8
:10021E000F08080F0F08080F070404070704040748
:10022E0003020203030202030101010101010101A4
:10023E0081C3663C181818184061331E0C0C0C0C48
:10024E002030190F0606060610180C0703030303C9
:10025E00080C060301010101040603010000000061
:10026E000203010000000000010100000000000078
:08027E00010204081020408079
:00000001FF
