:100000000C942A000C945C000C945C000C945C0032
:100010000C945C000C945C000C945C000C945C00F0
:100020000C945C000C945C000C945C000C945C00E0
:100030000C945C000C945C000C945C000C945C00D0
:100040000C945C000C945C000C945C000C945C00C0
:100050000C945C0011241FBECFE5D8E0DEBFCDBFFD
:0C0060000E9436000C945100F894FFCF71
:10006C0087E087BB81E088BB21E030E00EC04FE326
:10007C008DE093E0415080409040E1F700C00000DB
:10008C0088B3880F88BB2F5F3F4F243031057CF33A
:06009C0081E088BBE9CF02
:1000A200EC010E9461000E946000CE010E94620089
:0600B200CE010E945E0079
:0400B8000C940000A4
:0400BC000E9434006A
:0200C0000895A1
:0200C20008959F
:0200C40008959D
:00000001FF
