:100000000C942E000C94B3010C94B3010C94B30126
:100010000C94B3010C94B3010C94B3010C94B30190
:100020000C94B3010C94B3010C94B3010C94B30180
:100030000C94B3010C94B3010C94B3010C94B30170
:100040000C94B3010C94B3010C94B3010C94B30160
:100050000C94B301006002600003740011241FBE01
:10006000CFE5D8E0DEBFCDBFE4E5F0E040E017C06B
:10007000B591A59135912591059107FD0CC09591FC
:100080008591EF01F92FE82F05900D92A217B30784
:10009000D9F7FE0104C01D92A217B307E1F7EB35B3
:1000A000F40731F70E9458000C948501F894FFCFB3
:1000B000CF93DF93CDB7DEB7D2500FB6F894DEBF43
:1000C0000FBECDBF88EF91E0E0E6F0E0DE011196D3
:1000D00001900D920197E1F788E0E8E5F2E0DE019A
:1000E000A750BE4F01900D928A95E1F70E949001B2
:1000F000E12CF12C00E010E0C12CD12C69C0E9EF1B
:10010000F1E0EC0FFD1FE00FF11F808180950E9450
:100110000601F601EE0FFF1FEE0FFF1FEE0FFF1F90
:1001200081E090E08C0F9D1FE80FF91FE00FF11F99
:1001300080810E94ED000F5F1F4F0830110514F001
:1001400000E010E08FE697E10197F1F700C00000B2
:1001500098E0C916D10464F1E9EFF1E0EC0FFD1F5E
:10016000EE0DFF1D808180950E943801F6013897C1
:10017000EE0FFF1FEE0FFF1FEE0FFF1F81E090E05D
:100180008C0F9D1FE80FF91FEE0DFF1D80810E944F
:100190001F019FEFE91AF90A88E0E816F10414F04C
:1001A000E12CF12C8FE697E10197F1F700C00000F8
:1001B000B39401C0B12C98E69B1508F0A0CF8FE650
:1001C00097E10197F1F700C000009FEFC91AD90A23
:0A01D0008EE3C816D10474F38FCF3C
:1001DA00CF93DF93D82FC0E00DC0DD2324F485B37D
:1001EA00816085BB03C085B38E7F85BB0E94970162
:1001FA00DD0FCF5FC83088F30E945101DF91CF91A4
:02020A00089555
:10020C00CF93DF93D82FC0E00DC0DD2324F485B34A
:10021C00886085BB03C085B3877F85BB0E949E0128
:10022C00DD0FCF5FC83088F30E945E01DF91CF9164
:02023C00089523
:10023E00CF93DF93D82FC0E00DC0DD2324F488B315
:10024E00816088BB03C088B38E7F88BB0E94A501E6
:10025E00DD0FCF5FC83088F30E946B01DF91CF9125
:02026E000895F1
:10027000CF93DF93D82FC0E00DC0DD2324F488B3E3
:10028000886088BB03C088B3877F88BB0E94AC01AD
:10029000DD0FCF5FC83088F30E947801DF91CF91E6
:0202A0000895BF
:1002A20085B3846085BB81E0982F9A95F1F795B369
:0A02B2009B7F95BB8A95F1F7089534
:1002BC0085B3806285BB81E0982F9A95F1F795B351
:0A02CC009F7D95BB8A95F1F7089518
:1002D60088B3846088BB81E0982F9A95F1F798B32C
:0A02E6009B7F98BB8A95F1F70895FD
:1002F00088B3806288BB81E0982F9A95F1F798B314
:0A0300009F7D98BB8A95F1F70895E0
:10030A00EC010E94B8010E94B701CE010E94B90116
:06031A00CE010E94B501B6
:0E03200084B38F6384BB87B38F6387BB08955C
:0E032E0085B3826085BB85B38D7F85BB089546
:0E033C0085B3806185BB85B38F7E85BB089538
:0E034A0088B3826088BB88B38D7F88BB08951E
:0E03580088B3806188BB88B38F7E88BB089510
:040366000C940000F3
:04036A000E94560097
:02036E000895F0
:020370000895EE
:020372000895EC
:1003740000000000000000008000000000000000F9
:10038400C000000000000000E000000000000000C9
:10039400F080808080808080F8C0C0C0C0C0C0C0B1
:1003A400FC60606060606060FE303030303030305F
:1003B400FF181818181818187F0C0C0C0C0C0C0CBF
:1003C4003F060606060606069F030303030303838C
:1003D400CF010101010101C1E7000000000000E0BC
:1003E400F3808080808080F0F9C0C0C0C0C0C0F8B5
:1003F400FC606060606060FCFE303030303030FEA5
:10040400FF181818181818FF7F0C0C0C0C0C0C7F14
:100414003F0606060606063F1F0383830303039F66
:100424000F8141418101814F874020204080402736
:10043400C3A09090A0C0A093E1D0C8C8D0E0D0C918
:1004440070686464687068643834323234383432C2
:100454009C1A19191A1C1A19CE0D0C0C0D0E0D0C20
:10046400E706060606070606F383838383838383EE
:10047400F9C1C1C1C1C1C1C1FC606060606060609C
:10048400FE30303030303030FF1818181818181873
:100494007F0C0C0C0C0C0C0C3F060606060606061C
:1004A4009F83838383838383CFC1C1C1C1C1C1C1FE
:1004B400676060E0E0606060333030F0F03030302E
:1004C400191818F8F81818180C0C0CFCFC0C0C0C67
:1004D400868686FEFE868686C3C3C3FFFFC3C3C368
:1004E4006161617F7F6161613030303F3F30303026
:1004F4001818189F9F1818180C0C8C4F4F8C0C0C44
:1005040006864627274686068343231313234383FD
:1005140041A191090991A141205048040448502067
:100524001028A48282A428100814524141521408AD
:10053400040A292020290A040205141010140502B3
:1005440001020A08080A0201000105040405010069
:10055400000002020202000000000101010100008B
:100564000000000000000000010204081020408088
:00000001FF
