:100000000C942A000C9482000C9482000C948200C0
:100010000C9482000C9482000C9482000C94820058
:100020000C9482000C9482000C9482000C94820048
:100030000C9482000C9482000C9482000C94820038
:100040000C9482000C9482000C9482000C94820028
:100050000C94820011241FBECFE5D8E0DEBFCDBFD7
:0C0060000E9436000C947700F894FFCF4B
:10006C008FE187BB18BA88B3816088BB2FE38DE022
:10007C0093E0215080409040E1F700C0000088B32D
:10008C00826088BB2FE38DE093E02150804090404C
:10009C00E1F700C0000088B3846088BB2FE38DE0DB
:1000AC0093E0215080409040E1F700C0000088B3FD
:1000BC00886088BB2FE38DE093E021508040904016
:1000CC00E1F700C0000088B3806188BB2FE38DE0AE
:1000DC0093E0215080409040E1F700C0000018BA36
:0200EC00C2CF81
:1000EE00EC010E9487000E948600CE010E948800CB
:0600FE00CE010E94840007
:040104000C94000057
:040108000E9434001D
:02010C00089554
:02010E00089552
:02011000089550
:00000001FF
